{
  "contractName": "DutchAuction",
  "abi": [
    {
      "anonymous": false,
      "inputs": [
        {
          "indexed": false,
          "internalType": "string",
          "name": "message",
          "type": "string"
        }
      ],
      "name": "AuctionCancel",
      "type": "event"
    },
    {
      "anonymous": false,
      "inputs": [
        {
          "indexed": true,
          "internalType": "address",
          "name": "owner",
          "type": "address"
        },
        {
          "indexed": false,
          "internalType": "uint256",
          "name": "startPrice",
          "type": "uint256"
        },
        {
          "indexed": false,
          "internalType": "uint256",
          "name": "endPrice",
          "type": "uint256"
        },
        {
          "indexed": false,
          "internalType": "uint256",
          "name": "startTime",
          "type": "uint256"
        },
        {
          "indexed": false,
          "internalType": "uint256",
          "name": "endTime",
          "type": "uint256"
        }
      ],
      "name": "AuctionCreated",
      "type": "event"
    },
    {
      "anonymous": false,
      "inputs": [
        {
          "indexed": false,
          "internalType": "string",
          "name": "message",
          "type": "string"
        }
      ],
      "name": "AuctionEnded",
      "type": "event"
    },
    {
      "anonymous": false,
      "inputs": [
        {
          "indexed": true,
          "internalType": "address",
          "name": "buyer",
          "type": "address"
        },
        {
          "indexed": false,
          "internalType": "string",
          "name": "message",
          "type": "string"
        }
      ],
      "name": "BuyEvent",
      "type": "event"
    },
    {
      "inputs": [],
      "name": "buyer",
      "outputs": [
        {
          "internalType": "address",
          "name": "",
          "type": "address"
        }
      ],
      "stateMutability": "view",
      "type": "function"
    },
    {
      "inputs": [],
      "name": "endPrice",
      "outputs": [
        {
          "internalType": "uint256",
          "name": "",
          "type": "uint256"
        }
      ],
      "stateMutability": "view",
      "type": "function"
    },
    {
      "inputs": [],
      "name": "endTime",
      "outputs": [
        {
          "internalType": "uint256",
          "name": "",
          "type": "uint256"
        }
      ],
      "stateMutability": "view",
      "type": "function"
    },
    {
      "inputs": [],
      "name": "isActive",
      "outputs": [
        {
          "internalType": "bool",
          "name": "",
          "type": "bool"
        }
      ],
      "stateMutability": "view",
      "type": "function"
    },
    {
      "inputs": [],
      "name": "nftItem",
      "outputs": [
        {
          "internalType": "contract IERCC721",
          "name": "",
          "type": "address"
        }
      ],
      "stateMutability": "view",
      "type": "function"
    },
    {
      "inputs": [],
      "name": "owner",
      "outputs": [
        {
          "internalType": "address",
          "name": "",
          "type": "address"
        }
      ],
      "stateMutability": "view",
      "type": "function"
    },
    {
      "inputs": [],
      "name": "startPrice",
      "outputs": [
        {
          "internalType": "uint256",
          "name": "",
          "type": "uint256"
        }
      ],
      "stateMutability": "view",
      "type": "function"
    },
    {
      "inputs": [],
      "name": "startTime",
      "outputs": [
        {
          "internalType": "uint256",
          "name": "",
          "type": "uint256"
        }
      ],
      "stateMutability": "view",
      "type": "function"
    },
    {
      "inputs": [],
      "name": "tokenId",
      "outputs": [
        {
          "internalType": "uint256",
          "name": "",
          "type": "uint256"
        }
      ],
      "stateMutability": "view",
      "type": "function"
    },
    {
      "inputs": [
        {
          "internalType": "uint256",
          "name": "_startPrice",
          "type": "uint256"
        },
        {
          "internalType": "uint256",
          "name": "_endPrice",
          "type": "uint256"
        },
        {
          "internalType": "uint256",
          "name": "_duration",
          "type": "uint256"
        },
        {
          "internalType": "address",
          "name": "_nftItem",
          "type": "address"
        },
        {
          "internalType": "uint256",
          "name": "_tokenId",
          "type": "uint256"
        }
      ],
      "name": "createAuction",
      "outputs": [],
      "stateMutability": "nonpayable",
      "type": "function"
    },
    {
      "inputs": [],
      "name": "buy",
      "outputs": [],
      "stateMutability": "payable",
      "type": "function"
    },
    {
      "inputs": [],
      "name": "endAuction",
      "outputs": [],
      "stateMutability": "nonpayable",
      "type": "function"
    },
    {
      "inputs": [],
      "name": "Cancel",
      "outputs": [],
      "stateMutability": "nonpayable",
      "type": "function"
    },
    {
      "inputs": [],
      "name": "resetAuction",
      "outputs": [],
      "stateMutability": "nonpayable",
      "type": "function"
    }
  ],
  "bytecode": "0x608060405234801561001057600080fd5b50610b12806100206000396000f3fe6080604052600436106100dd5760003560e01c80638da5cb5b1161007f578063a6f2ae3a11610059578063a6f2ae3a14610225578063b868723e1461022d578063f1a9af8914610243578063fe67a54b1461025957600080fd5b80638da5cb5b146101c55780639bfd3b38146101e5578063a1e050111461020557600080fd5b80634aa8e773116100bb5780634aa8e7731461014b5780637150d8ae1461016257806378e979251461019a5780637d350453146101b057600080fd5b806317d70f7c146100e257806322f3e2d41461010b5780633197cbb614610135575b600080fd5b3480156100ee57600080fd5b506100f860035481565b6040519081526020015b60405180910390f35b34801561011757600080fd5b506008546101259060ff1681565b6040519015158152602001610102565b34801561014157600080fd5b506100f860055481565b34801561015757600080fd5b5061016061026e565b005b34801561016e57600080fd5b50600154610182906001600160a01b031681565b6040516001600160a01b039091168152602001610102565b3480156101a657600080fd5b506100f860045481565b3480156101bc57600080fd5b506101606103ee565b3480156101d157600080fd5b50600054610182906001600160a01b031681565b3480156101f157600080fd5b506101606102003660046109f7565b61042f565b34801561021157600080fd5b50600254610182906001600160a01b031681565b610160610697565b34801561023957600080fd5b506100f860075481565b34801561024f57600080fd5b506100f860065481565b34801561026557600080fd5b50610160610875565b6000546001600160a01b031633146102cd5760405162461bcd60e51b815260206004820152601a60248201527f4f6e6c79206f776e65722063616e20616363657373207468697300000000000060448201526064015b60405180910390fd5b60085460ff166102ef5760405162461bcd60e51b81526004016102c490610a40565b6008805460ff191690556001546001600160a01b031661037d576002546000546003546040516323b872dd60e01b81526001600160a01b0392831660048201819052602482015260448101919091529116906323b872dd90606401600060405180830381600087803b15801561036457600080fd5b505af1158015610378573d6000803e3d6000fd5b505050505b6103856103ee565b7f40ba53bba6e065ce376c63b248ea0b7c92938a3a42984a83aafb3947ca9a2add6040516103e4906020808252601a908201527f41756374696f6e2063616e63656c6c6564206279206f776e6572000000000000604082015260600190565b60405180910390a1565b6000600681905560078190556004819055600581905560038190556008805460ff1916905580546001600160a01b0319908116909155600180549091169055565b600080546001600160a01b031916331790556006859055600784905542600481905561045c908490610a6f565b600555600280546001600160a01b0319166001600160a01b03848116918217909255600383905560005460405163e985e9c560e01b8152921660048301523060248301529063e985e9c590604401602060405180830381865afa1580156104c7573d6000803e3d6000fd5b505050506040513d601f19601f820116820180604052508101906104eb9190610a96565b6105555760405162461bcd60e51b815260206004820152603560248201527f41756374696f6e20636f6e7472616374206973206e6f7420617070726f766564604482015274081d1bc81d1c985b9cd9995c881d1a1a5cc8139195605a1b60648201526084016102c4565b6000546002546003546040516331a9108f60e11b815260048101919091526001600160a01b039283169290911690636352211e90602401602060405180830381865afa1580156105a9573d6000803e3d6000fd5b505050506040513d601f19601f820116820180604052508101906105cd9190610abf565b6001600160a01b0316146106235760405162461bcd60e51b815260206004820152601b60248201527f43616c6c657220646f6573206e6f74206f776e20746865204e4654000000000060448201526064016102c4565b6008805460ff191660011790556000546006546007546004546005546040805194855260208501939093529183015260608201526001600160a01b03909116907fb0c0552f858e630668cc4c58a1b7d1bd302efa77c15d8ec0f1fe725053c598019060800160405180910390a25050505050565b60085460ff166106b95760405162461bcd60e51b81526004016102c490610a40565b6008805460ff1916905560018054336001600160a01b0319918216811790925560008054918216831790556002546003546040516323b872dd60e01b81526001600160a01b0393841660048201819052602482019590955260448101919091529116906323b872dd90606401600060405180830381600087803b15801561073f57600080fd5b505af1158015610753573d6000803e3d6000fd5b505050506000816001600160a01b03163460405160006040518083038185875af1925050503d80600081146107a4576040519150601f19603f3d011682016040523d82523d6000602084013e6107a9565b606091505b50509050806107fa5760405162461bcd60e51b815260206004820152601860248201527f5472616e7366657220746f206f776e6572206661696c6564000000000000000060448201526064016102c4565b6001546040516001600160a01b03909116907f1dd4836732b48fb9ee3062ebd57ecbda97b4a53fdff9e64801434781511f6aff90610869906020808252601b908201527f4974656d207375636365737366756c6c79207075726368617365640000000000604082015260600190565b60405180910390a25050565b6000546001600160a01b031633146108cf5760405162461bcd60e51b815260206004820152601a60248201527f4f6e6c79206f776e65722063616e20616363657373207468697300000000000060448201526064016102c4565b60085460ff166108f15760405162461bcd60e51b81526004016102c490610a40565b6008805460ff191690556001546001600160a01b031661097f576002546000546003546040516323b872dd60e01b81526001600160a01b0392831660048201819052602482015260448101919091529116906323b872dd90606401600060405180830381600087803b15801561096657600080fd5b505af115801561097a573d6000803e3d6000fd5b505050505b6109876103ee565b7f4d9638fc0686b4185c8c65b4615620a8df32b22c3fe539ba7c6a7d72b13e2cf76040516103e49060208082526016908201527520bab1ba34b7b71032b73232b210313c9037bbb732b960511b604082015260600190565b6001600160a01b03811681146109f457600080fd5b50565b600080600080600060a08688031215610a0f57600080fd5b8535945060208601359350604086013592506060860135610a2f816109df565b949793965091946080013592915050565b60208082526015908201527441756374696f6e206973206e6f742061637469766560581b604082015260600190565b80820180821115610a9057634e487b7160e01b600052601160045260246000fd5b92915050565b600060208284031215610aa857600080fd5b81518015158114610ab857600080fd5b9392505050565b600060208284031215610ad157600080fd5b8151610ab8816109df56fea2646970667358221220694cca5f7510f2160930ff53adf3c7cbe3e63cb7805268fc98b35d49e65c976064736f6c63430008140033",
  "immutableReferences": {},
  "source": "// SPDX-License-Identifier: MIT\r\npragma solidity ^0.8.0;\r\n\r\ninterface IERCC721 {\r\n    function transferFrom(address from, address to, uint tokenId) external;\r\n    function ownerOf(uint tokenId) external view returns (address);\r\n    function isApprovedForAll(address owner, address operator) external view returns (bool);\r\n}\r\n\r\ncontract DutchAuction {\r\n    address public owner;\r\n    address public buyer;\r\n    IERCC721 public nftItem;\r\n    uint public tokenId;\r\n    uint public startTime;\r\n    uint public endTime;\r\n    uint public startPrice;\r\n    uint public endPrice;\r\n    bool public isActive;\r\n\r\n    event BuyEvent(address indexed buyer, string message);\r\n    event AuctionEnded(string message);\r\n    event AuctionCancel(string message);\r\n    event AuctionCreated(address indexed owner, uint startPrice, uint endPrice, uint startTime, uint endTime);\r\n\r\n    modifier onlyOwner() {\r\n        require(msg.sender == owner, \"Only owner can access this\");\r\n        _;\r\n    }\r\n\r\n    modifier auctionActive() {\r\n        require(isActive, \"Auction is not active\");\r\n        _;\r\n    }\r\n\r\n    function createAuction(uint _startPrice, uint _endPrice, uint _duration, address _nftItem, uint _tokenId) public {\r\n        owner = msg.sender;\r\n        startPrice = _startPrice ;\r\n        endPrice = _endPrice;\r\n        startTime = block.timestamp;\r\n        endTime = startTime + _duration;\r\n        nftItem = IERCC721(_nftItem);\r\n        tokenId = _tokenId;\r\n\r\n        // Ensure the auction contract is approved to transfer the NFT\r\n        require(nftItem.isApprovedForAll(owner, address(this)), \"Auction contract is not approved to transfer this NFT\");\r\n\r\n        // Ensure the caller owns the NFT\r\n        require(nftItem.ownerOf(tokenId) == owner, \"Caller does not own the NFT\");\r\n\r\n        isActive = true;\r\n        emit AuctionCreated(owner, startPrice, endPrice, startTime, endTime);\r\n    }\r\n\r\n\r\n        function buy() external payable auctionActive {\r\n        \r\n        isActive = false;\r\n        buyer = msg.sender;\r\n        address oldOwner = owner;\r\n        owner = msg.sender;\r\n        \r\n        // Transfer NFT to the buyer\r\n        nftItem.transferFrom(oldOwner, msg.sender, tokenId);\r\n\r\n        // Transfer funds to the owner\r\n        (bool success, ) = payable(oldOwner).call{value: msg.value}(\"\");\r\n        require(success, \"Transfer to owner failed\");\r\n\r\n\r\n        emit BuyEvent(buyer, \"Item successfully purchased\");\r\n    }\r\n\r\n    function endAuction() public onlyOwner auctionActive {\r\n        isActive = false;\r\n\r\n        // If the NFT wasn't sold, return it to the owner\r\n        if (buyer == address(0)) {\r\n            nftItem.transferFrom(owner, owner, tokenId);\r\n        }\r\n        resetAuction();\r\n        emit AuctionEnded(\"Auction ended by owner\");\r\n    }\r\n\r\n    function Cancel() public onlyOwner() auctionActive() {\r\n        isActive = false;\r\n\r\n         if (buyer == address(0)) {\r\n            nftItem.transferFrom(owner, owner, tokenId);\r\n        }\r\n        resetAuction();\r\n\r\n        emit AuctionCancel(\"Auction cancelled by owner\");\r\n    }\r\n\r\n   \r\n    function resetAuction() public  {\r\n        \r\n            startPrice = 0;\r\n            endPrice = 0;\r\n            startTime = 0;\r\n            endTime = 0;\r\n            tokenId = 0;\r\n            isActive = false;\r\n            owner = address(0);\r\n            buyer = address(0);\r\n            \r\n       \r\n    }\r\n}\r\n",
  "sourcePath": "D:\\Blockchain\\Truffle\\Marketplace\\truffle\\contracts\\DutchAuction.sol",
  "compiler": {
    "name": "solc",
    "version": "0.8.20+commit.a1b79de6.Emscripten.clang"
  },
  "schemaVersion": "3.4.16",
  "updatedAt": "2025-01-06T08:06:21.812Z",
  "devdoc": {
    "kind": "dev",
    "methods": {},
    "version": 1
  },
  "userdoc": {
    "kind": "user",
    "methods": {},
    "version": 1
  }
}