{
  "contractName": "EnglishAuction",
  "abi": [
    {
      "anonymous": false,
      "inputs": [
        {
          "indexed": false,
          "internalType": "address",
          "name": "HighestBidder",
          "type": "address"
        },
        {
          "indexed": false,
          "internalType": "uint256",
          "name": "HighestBid",
          "type": "uint256"
        }
      ],
      "name": "AuctionEnd",
      "type": "event"
    },
    {
      "anonymous": false,
      "inputs": [
        {
          "indexed": false,
          "internalType": "address",
          "name": "PreviewsHighestBidder",
          "type": "address"
        },
        {
          "indexed": false,
          "internalType": "uint256",
          "name": "PreviewsHighestBid",
          "type": "uint256"
        }
      ],
      "name": "previews",
      "type": "event"
    },
    {
      "anonymous": false,
      "inputs": [
        {
          "indexed": false,
          "internalType": "uint256",
          "name": "price",
          "type": "uint256"
        },
        {
          "indexed": false,
          "internalType": "uint256",
          "name": "duration",
          "type": "uint256"
        },
        {
          "indexed": false,
          "internalType": "uint256",
          "name": "tokenId",
          "type": "uint256"
        }
      ],
      "name": "startAuction",
      "type": "event"
    },
    {
      "inputs": [],
      "name": "endTime",
      "outputs": [
        {
          "internalType": "uint256",
          "name": "",
          "type": "uint256"
        }
      ],
      "stateMutability": "view",
      "type": "function"
    },
    {
      "inputs": [],
      "name": "ended",
      "outputs": [
        {
          "internalType": "bool",
          "name": "",
          "type": "bool"
        }
      ],
      "stateMutability": "view",
      "type": "function"
    },
    {
      "inputs": [],
      "name": "highestBid",
      "outputs": [
        {
          "internalType": "uint256",
          "name": "",
          "type": "uint256"
        }
      ],
      "stateMutability": "view",
      "type": "function"
    },
    {
      "inputs": [],
      "name": "highestBidder",
      "outputs": [
        {
          "internalType": "address",
          "name": "",
          "type": "address"
        }
      ],
      "stateMutability": "view",
      "type": "function"
    },
    {
      "inputs": [],
      "name": "nftItem",
      "outputs": [
        {
          "internalType": "contract IERCC721",
          "name": "",
          "type": "address"
        }
      ],
      "stateMutability": "view",
      "type": "function"
    },
    {
      "inputs": [],
      "name": "owner",
      "outputs": [
        {
          "internalType": "address",
          "name": "",
          "type": "address"
        }
      ],
      "stateMutability": "view",
      "type": "function"
    },
    {
      "inputs": [],
      "name": "startTime",
      "outputs": [
        {
          "internalType": "uint256",
          "name": "",
          "type": "uint256"
        }
      ],
      "stateMutability": "view",
      "type": "function"
    },
    {
      "inputs": [],
      "name": "tokenId",
      "outputs": [
        {
          "internalType": "uint256",
          "name": "",
          "type": "uint256"
        }
      ],
      "stateMutability": "view",
      "type": "function"
    },
    {
      "stateMutability": "payable",
      "type": "receive"
    },
    {
      "inputs": [
        {
          "internalType": "address",
          "name": "_nftItem",
          "type": "address"
        },
        {
          "internalType": "uint256",
          "name": "_duration",
          "type": "uint256"
        },
        {
          "internalType": "uint256",
          "name": "_tokenId",
          "type": "uint256"
        },
        {
          "internalType": "uint256",
          "name": "_highestBid",
          "type": "uint256"
        }
      ],
      "name": "StartBidding",
      "outputs": [],
      "stateMutability": "nonpayable",
      "type": "function"
    },
    {
      "inputs": [],
      "name": "Bid",
      "outputs": [],
      "stateMutability": "payable",
      "type": "function"
    },
    {
      "inputs": [],
      "name": "EndTime",
      "outputs": [],
      "stateMutability": "nonpayable",
      "type": "function"
    },
    {
      "inputs": [],
      "name": "Cancel",
      "outputs": [],
      "stateMutability": "nonpayable",
      "type": "function"
    },
    {
      "inputs": [],
      "name": "checkTime",
      "outputs": [
        {
          "internalType": "uint256",
          "name": "Time",
          "type": "uint256"
        }
      ],
      "stateMutability": "view",
      "type": "function"
    },
    {
      "inputs": [],
      "name": "reset",
      "outputs": [],
      "stateMutability": "nonpayable",
      "type": "function"
    }
  ],
  "bytecode": "0x608060405234801561001057600080fd5b50610cef806100206000396000f3fe6080604052600436106100e15760003560e01c80638da5cb5b1161007f578063a1e0501111610059578063a1e050111461027e578063d57bde791461029e578063d826f88f146102b4578063e0c6190d146102c957600080fd5b80638da5cb5b146102065780638fcd191f1461023e57806391f901571461025e57600080fd5b806333360978116100bb57806333360978146101bc5780634aa8e773146101d35780636e6452cb146101e857806378e97925146101f057600080fd5b806312fa6feb1461014c57806317d70f7c146101825780633197cbb6146101a657600080fd5b366101475760405162461bcd60e51b815260206004820152602b60248201527f43616e6e6f742073656e64204574686572206469726563746c7920746f20746860448201526a1a5cc818dbdb9d1c9858dd60aa1b60648201526084015b60405180910390fd5b600080fd5b34801561015857600080fd5b5060035461016d90600160a01b900460ff1681565b60405190151581526020015b60405180910390f35b34801561018e57600080fd5b5061019860055481565b604051908152602001610179565b3480156101b257600080fd5b5061019860045481565b3480156101c857600080fd5b506101d16102de565b005b3480156101df57600080fd5b506101d16104c8565b6101d16106a8565b3480156101fc57600080fd5b5061019860065481565b34801561021257600080fd5b50600054610226906001600160a01b031681565b6040516001600160a01b039091168152602001610179565b34801561024a57600080fd5b506101d1610259366004610bf6565b61093f565b34801561026a57600080fd5b50600154610226906001600160a01b031681565b34801561028a57600080fd5b50600354610226906001600160a01b031681565b3480156102aa57600080fd5b5061019860025481565b3480156102c057600080fd5b506101d1610b7d565b3480156102d557600080fd5b50610198610bb9565b6000546001600160a01b031633146103305760405162461bcd60e51b81526020600482015260156024820152744f6e6c79204f776e65722043616e2041636365737360581b604482015260640161013e565b6003805460ff60a01b1916600160a01b179055600154600080546001600160a01b0319166001600160a01b0390921691909117815560025460405133919060006040518083038185875af1925050503d80600081146103ab576040519150601f19603f3d011682016040523d82523d6000602084013e6103b0565b606091505b50509050806104015760405162461bcd60e51b815260206004820152601860248201527f5472616e73666572206661696c656420746f206f776e65720000000000000000604482015260640161013e565b6003546001546005546040516323b872dd60e01b81523360048201526001600160a01b03928316602482015260448101919091529116906323b872dd90606401600060405180830381600087803b15801561045b57600080fd5b505af115801561046f573d6000803e3d6000fd5b5050505061047b610b7d565b600154600254604080516001600160a01b03909316835260208301919091527f6ae96154c7c63a88543f3fdfca38bc8f87f4e2b034479c9429858b4b56fa0bec910160405180910390a150565b6000546001600160a01b0316331461051a5760405162461bcd60e51b81526020600482015260156024820152744f6e6c79204f776e65722043616e2041636365737360581b604482015260640161013e565b600354600160a01b900460ff16156105675760405162461bcd60e51b815260206004820152601060248201526f105d58dd1a5bdb88125cc8115b99195960821b604482015260640161013e565b60045442106105af5760405162461bcd60e51b81526020600482015260146024820152732134b23234b733903a34b6b29034b99037bb32b960611b604482015260640161013e565b6003805460ff60a01b1916600160a01b179055600254156106a657600280546001805460009093556001600160a01b031983169055906001600160a01b031681156106a3576000816001600160a01b03168360405160006040518083038185875af1925050503d8060008114610641576040519150601f19603f3d011682016040523d82523d6000602084013e610646565b606091505b50509050806106a15760405162461bcd60e51b815260206004820152602160248201527f5472616e73666572206661696c656420746f20686967686573742062696464656044820152603960f91b606482015260840161013e565b505b50505b565b600354600160a01b900460ff16156106f55760405162461bcd60e51b815260206004820152601060248201526f105d58dd1a5bdb88125cc8115b99195960821b604482015260640161013e565b600454421061073d5760405162461bcd60e51b81526020600482015260146024820152732134b23234b733903a34b6b29034b99037bb32b960611b604482015260640161013e565b6000546001600160a01b0316330361078a5760405162461bcd60e51b815260206004820152601060248201526f13dddb995c8818d85b9b9bdd08189a5960821b604482015260640161013e565b600354600160a01b900460ff16156107d65760405162461bcd60e51b815260206004820152600f60248201526e20bab1ba34b7b71034b99037bb32b960891b604482015260640161013e565b60025434116108185760405162461bcd60e51b815260206004820152600e60248201526d42696420697320746f6f206c6f7760901b604482015260640161013e565b60018054600280546001600160a01b0319831633179093553490556001600160a01b03169081156108f9576000826001600160a01b03168260405160006040518083038185875af1925050503d8060008114610890576040519150601f19603f3d011682016040523d82523d6000602084013e610895565b606091505b50509050806108f75760405162461bcd60e51b815260206004820152602860248201527f4661696c656420746f20726566756e642070726576696f7573206869676865736044820152673a103134b23232b960c11b606482015260840161013e565b505b604080516001600160a01b0384168152602081018390527fa30f0834c05784ba29337d94dc2beb24ce2893e3371fde0c17bb350f690fc0f9910160405180910390a15050565b60008054336001600160a01b031991821617909155600380549091166001600160a01b038616179055426006819055610979908490610c47565b60049081556005839055600282905560035460005460405163e985e9c560e01b81526001600160a01b0391821693810193909352306024840152169063e985e9c590604401602060405180830381865afa1580156109db573d6000803e3d6000fd5b505050506040513d601f19601f820116820180604052508101906109ff9190610c60565b610a695760405162461bcd60e51b815260206004820152603560248201527f41756374696f6e20636f6e7472616374206973206e6f7420617070726f766564604482015274081d1bc81d1c985b9cd9995c881d1a1a5cc8139195605a1b606482015260840161013e565b6000546003546040516331a9108f60e11b8152600481018590526001600160a01b039283169290911690636352211e90602401602060405180830381865afa158015610ab9573d6000803e3d6000fd5b505050506040513d601f19601f82011682018060405250810190610add9190610c89565b6001600160a01b031614610b335760405162461bcd60e51b815260206004820152601960248201527f43616c6c657220646f6573206e6f74206f776e20746f6b656e00000000000000604482015260640161013e565b60025460055460408051928352602083018690528201527f91e078bba26b6e5a5806fcd337264152da6c07208161af0dd5ba2fecb2782cfc9060600160405180910390a150505050565b600080546001600160a01b0319908116825560018054909116905560028190556003805460ff60a01b1916905560048190556005819055600655565b6000600454421115610bcb5750600090565b42600454610bd99190610ca6565b905090565b6001600160a01b0381168114610bf357600080fd5b50565b60008060008060808587031215610c0c57600080fd5b8435610c1781610bde565b966020860135965060408601359560600135945092505050565b634e487b7160e01b600052601160045260246000fd5b80820180821115610c5a57610c5a610c31565b92915050565b600060208284031215610c7257600080fd5b81518015158114610c8257600080fd5b9392505050565b600060208284031215610c9b57600080fd5b8151610c8281610bde565b81810381811115610c5a57610c5a610c3156fea2646970667358221220ca2a63bb4985b2a081100c957078b3892030c6829de85436cf87120296940f4364736f6c63430008140033",
  "immutableReferences": {},
  "source": "// SPDX-License-Identifier: MIT\r\n\r\npragma solidity ^0.8.0;\r\n\r\ninterface IERCC721 {\r\n    function transferFrom(address from, address to, uint tokenId) external;\r\n    function ownerOf(uint tokenId) external view returns (address);\r\n    function isApprovedForAll(\r\n        address owner,\r\n        address operator\r\n    ) external view returns (bool);\r\n}\r\n\r\ncontract EnglishAuction {\r\n    address public owner;\r\n    address public highestBidder;\r\n    uint256 public highestBid;\r\n    IERCC721 public nftItem;\r\n    bool public ended;\r\n    uint256 public endTime;\r\n    uint256 public tokenId;\r\n    uint256 public startTime;\r\n    event AuctionEnd(address HighestBidder, uint256 HighestBid);\r\n    event startAuction(uint256 price, uint256 duration, uint256 tokenId);\r\n    event previews(address PreviewsHighestBidder, uint256 PreviewsHighestBid);\r\n\r\n    modifier onlyOwner() {\r\n        require(msg.sender == owner, \"Only Owner Can Access\");\r\n        _;\r\n    }\r\n    modifier TimeNotEnded() {\r\n        require(!ended, \"Auction Is Ended\");\r\n        require(block.timestamp < endTime, \"Bidding time is over\");\r\n        _;\r\n    }\r\n\r\n    receive() external payable {\r\n        revert(\"Cannot send Ether directly to this contract\");\r\n    }\r\n\r\n    function StartBidding(\r\n        address _nftItem,\r\n        uint256 _duration,\r\n        uint256 _tokenId,\r\n        uint256 _highestBid\r\n    ) public {\r\n        owner = msg.sender;\r\n        nftItem = IERCC721(_nftItem);\r\n        startTime = block.timestamp;\r\n        endTime = startTime + _duration;\r\n        tokenId = _tokenId;\r\n        highestBid = _highestBid;\r\n\r\n        require(\r\n            nftItem.isApprovedForAll(owner, address(this)),\r\n            \"Auction contract is not approved to transfer this NFT\"\r\n        );\r\n\r\n        require(\r\n            nftItem.ownerOf(_tokenId) == owner,\r\n            \"Caller does not own token\"\r\n        );\r\n\r\n        emit startAuction(highestBid, _duration, tokenId);\r\n    }\r\n\r\n    function Bid() public payable TimeNotEnded {\r\n        require(msg.sender != owner, \"Owner cannot bid\");\r\n        require(!ended, \"Auction is over\");\r\n        require(msg.value > highestBid, \"Bid is too low\");\r\n\r\n        address previousHighestBidder = highestBidder;\r\n        uint previousHighestBid = highestBid;\r\n\r\n        highestBidder = msg.sender;\r\n        highestBid = msg.value;\r\n\r\n        // Refund the previous highest bidder\r\n        if (previousHighestBidder != address(0)) {\r\n            (bool sent, ) = previousHighestBidder.call{\r\n                value: previousHighestBid\r\n            }(\"\");\r\n            require(sent, \"Failed to refund previous highest bidder\");\r\n        }\r\n\r\n        emit previews(previousHighestBidder, previousHighestBid);\r\n    }\r\n\r\n    function EndTime() public onlyOwner {\r\n        ended = true;\r\n        owner = highestBidder;\r\n\r\n        // Transfer the funds first\r\n        (bool sent, ) = payable(msg.sender).call{value: highestBid}(\"\");\r\n        require(sent, \"Transfer failed to owner\");\r\n\r\n        // Then transfer the NFT\r\n        nftItem.transferFrom(msg.sender, highestBidder, tokenId);\r\n        reset();\r\n        emit AuctionEnd(highestBidder, highestBid);\r\n    }\r\n\r\n    function Cancel() public onlyOwner TimeNotEnded {\r\n        ended = true;\r\n\r\n        if (highestBid != 0) {\r\n            uint refundAmount = highestBid;\r\n            address refundAddress = highestBidder;\r\n\r\n            highestBid = 0;\r\n            highestBidder = address(0);\r\n\r\n            if (refundAmount > 0) {\r\n                (bool sent, ) = refundAddress.call{value: refundAmount}(\"\");\r\n                require(sent, \"Transfer failed to highest bidder\");\r\n            }\r\n        }\r\n    }\r\n\r\n    function checkTime() public view returns (uint256 Time) {\r\n        if (block.timestamp > endTime) {\r\n            return 0;\r\n        } else {\r\n            return endTime - block.timestamp;\r\n        }\r\n    }\r\n\r\n    function reset() public {\r\n        owner = address(0);\r\n        highestBidder = address(0);\r\n        highestBid = 0 ether;\r\n        ended = false;\r\n        endTime = 0;\r\n        tokenId = 0;\r\n        startTime = 0;\r\n    }\r\n}\r\n",
  "sourcePath": "D:\\Blockchain\\Truffle\\Marketplace\\truffle\\contracts\\EnglishAuction.sol",
  "compiler": {
    "name": "solc",
    "version": "0.8.20+commit.a1b79de6.Emscripten.clang"
  },
  "schemaVersion": "3.4.16",
  "updatedAt": "2024-12-03T09:21:53.044Z",
  "devdoc": {
    "kind": "dev",
    "methods": {},
    "version": 1
  },
  "userdoc": {
    "kind": "user",
    "methods": {},
    "version": 1
  }
}