{
  "contractName": "Multisig",
  "abi": [
    {
      "anonymous": false,
      "inputs": [
        {
          "indexed": false,
          "internalType": "address",
          "name": "to",
          "type": "address"
        },
        {
          "indexed": false,
          "internalType": "uint256",
          "name": "value",
          "type": "uint256"
        }
      ],
      "name": "checkTx",
      "type": "event"
    },
    {
      "inputs": [],
      "name": "confirmNum",
      "outputs": [
        {
          "internalType": "uint256",
          "name": "",
          "type": "uint256"
        }
      ],
      "stateMutability": "view",
      "type": "function"
    },
    {
      "inputs": [
        {
          "internalType": "uint256",
          "name": "",
          "type": "uint256"
        }
      ],
      "name": "getTx",
      "outputs": [
        {
          "internalType": "uint256",
          "name": "id",
          "type": "uint256"
        },
        {
          "internalType": "address",
          "name": "to",
          "type": "address"
        },
        {
          "internalType": "uint256",
          "name": "value",
          "type": "uint256"
        },
        {
          "internalType": "bool",
          "name": "executed",
          "type": "bool"
        },
        {
          "internalType": "uint256",
          "name": "confirmCount",
          "type": "uint256"
        }
      ],
      "stateMutability": "view",
      "type": "function"
    },
    {
      "inputs": [
        {
          "internalType": "uint256",
          "name": "",
          "type": "uint256"
        },
        {
          "internalType": "address",
          "name": "",
          "type": "address"
        }
      ],
      "name": "isConfirme",
      "outputs": [
        {
          "internalType": "bool",
          "name": "",
          "type": "bool"
        }
      ],
      "stateMutability": "view",
      "type": "function"
    },
    {
      "inputs": [
        {
          "internalType": "address",
          "name": "",
          "type": "address"
        }
      ],
      "name": "isOwner",
      "outputs": [
        {
          "internalType": "bool",
          "name": "",
          "type": "bool"
        }
      ],
      "stateMutability": "view",
      "type": "function"
    },
    {
      "inputs": [
        {
          "internalType": "uint256",
          "name": "",
          "type": "uint256"
        }
      ],
      "name": "owners",
      "outputs": [
        {
          "internalType": "address",
          "name": "",
          "type": "address"
        }
      ],
      "stateMutability": "view",
      "type": "function"
    },
    {
      "inputs": [
        {
          "internalType": "address[]",
          "name": "_owners",
          "type": "address[]"
        },
        {
          "internalType": "uint256",
          "name": "_confirmeNum",
          "type": "uint256"
        }
      ],
      "name": "setOwners",
      "outputs": [],
      "stateMutability": "nonpayable",
      "type": "function"
    },
    {
      "inputs": [
        {
          "internalType": "address",
          "name": "_to",
          "type": "address"
        },
        {
          "internalType": "uint256",
          "name": "_id",
          "type": "uint256"
        }
      ],
      "name": "submit",
      "outputs": [],
      "stateMutability": "payable",
      "type": "function"
    },
    {
      "inputs": [
        {
          "internalType": "uint256",
          "name": "_id",
          "type": "uint256"
        }
      ],
      "name": "ConfirmTx",
      "outputs": [],
      "stateMutability": "nonpayable",
      "type": "function"
    },
    {
      "inputs": [
        {
          "internalType": "uint256",
          "name": "id",
          "type": "uint256"
        }
      ],
      "name": "Executed",
      "outputs": [],
      "stateMutability": "nonpayable",
      "type": "function"
    },
    {
      "inputs": [],
      "name": "getOwners",
      "outputs": [
        {
          "internalType": "address[]",
          "name": "",
          "type": "address[]"
        }
      ],
      "stateMutability": "view",
      "type": "function"
    },
    {
      "inputs": [],
      "name": "resetwallet",
      "outputs": [],
      "stateMutability": "nonpayable",
      "type": "function"
    }
  ],
  "bytecode": "0x608060405234801561001057600080fd5b5061111e806100206000396000f3fe60806040526004361061009c5760003560e01c8063a0e67e2b11610064578063a0e67e2b14610183578063b8c89338146101a5578063bcf6a68a14610232578063c2d2a63e14610252578063d2d7c72714610272578063df5cb5a01461029657600080fd5b8063025e7c27146100a1578063064d6359146100de578063203dd666146101295780632f54bf6e1461013e5780636de6da4a1461016e575b600080fd5b3480156100ad57600080fd5b506100c16100bc366004610db5565b6102b6565b6040516001600160a01b0390911681526020015b60405180910390f35b3480156100ea57600080fd5b506101196100f9366004610dea565b600160209081526000928352604080842090915290825290205460ff1681565b60405190151581526020016100d5565b61013c610137366004610e16565b6102e0565b005b34801561014a57600080fd5b50610119610159366004610e40565b60026020526000908152604090205460ff1681565b34801561017a57600080fd5b5061013c610673565b34801561018f57600080fd5b506101986106f8565b6040516100d59190610e62565b3480156101b157600080fd5b506102006101c0366004610db5565b60036020819052600091825260409091208054600182015460028301549383015460049093015491936001600160a01b0390911692909160ff9091169085565b604080519586526001600160a01b0390941660208601529284019190915215156060830152608082015260a0016100d5565b34801561023e57600080fd5b5061013c61024d366004610db5565b61075a565b34801561025e57600080fd5b5061013c61026d366004610db5565b610982565b34801561027e57600080fd5b5061028860045481565b6040519081526020016100d5565b3480156102a257600080fd5b5061013c6102b1366004610ec5565b610a9c565b600081815481106102c657600080fd5b6000918252602090912001546001600160a01b0316905081565b3360009081526002602052604090205460ff166103185760405162461bcd60e51b815260040161030f90610f90565b60405180910390fd5b6000818152600160209081526040808320338452909152902054819060ff16156103545760405162461bcd60e51b815260040161030f90610fd9565b60008281526003602081905260409091200154829060ff16156103895760405162461bcd60e51b815260040161030f90611021565b6000838152600360205260409020548390036103e75760405162461bcd60e51b815260206004820152601c60248201527f5472616e73616374696f6e20416c7265616479205375626d6974656400000000604482015260640161030f565b670de0b6b3a764000034101561044e5760405162461bcd60e51b815260206004820152602660248201527f56616c7565204d7573742062652047726561746572207468616e20457175616c60448201526504062408aa8960d31b606482015260840161030f565b60005b6000548110156104fd576000856001600160a01b03166000838154811061047a5761047a611068565b6000918252602090912001546001600160a01b031614159050806104ea5760405162461bcd60e51b815260206004820152602160248201527f5472616e73616374696f6e2063616e2774207375626d697420746f206f776e656044820152603960f91b606482015260840161030f565b50806104f58161107e565b915050610451565b50506040805160a0810182528381526001600160a01b039485166020808301918252348385019081526000606085018181526080860182815298825260039384905295812085518155845160018281018054928d166001600160a01b0319938416179055845160028401558851958301805496151560ff199788161790558a5160049093019290925560058054928301815592839052955191027f036b6384b5eca791c62761152d0c79bb0604c104a5fb6f4eb0703f3154bb3db081019190915592517f036b6384b5eca791c62761152d0c79bb0604c104a5fb6f4eb0703f3154bb3db1840180549190991694169390931790965590517f036b6384b5eca791c62761152d0c79bb0604c104a5fb6f4eb0703f3154bb3db282015590517f036b6384b5eca791c62761152d0c79bb0604c104a5fb6f4eb0703f3154bb3db382018054911515919095161790935550517f036b6384b5eca791c62761152d0c79bb0604c104a5fb6f4eb0703f3154bb3db490910155565b60005b6000548110156106de5760006002600080848154811061069857610698611068565b6000918252602080832091909101546001600160a01b031683528201929092526040019020805460ff1916911515919091179055806106d68161107e565b915050610676565b506106ea600080610d1a565b6106f660056000610d3b565b565b6060600080548060200260200160405190810160405280929190818152602001828054801561075057602002820191906000526020600020905b81546001600160a01b03168152600190910190602001808311610732575b5050505050905090565b3360009081526002602052604090205460ff166107895760405162461bcd60e51b815260040161030f90610f90565b600081815260036020526040902054819081146107b85760405162461bcd60e51b815260040161030f906110a5565b60008281526003602081905260409091200154829060ff16156107ed5760405162461bcd60e51b815260040161030f90611021565b6000838152600360205260409020600480549082015410156108775760405162461bcd60e51b815260206004820152603860248201527f5472616e73616374696f6e204973204e6f7420436f6e6669726d65642042792060448201527f5265717572656420436f6e6669726d65204e756d626572730000000000000000606482015260840161030f565b60038101805460ff1916600190811790915581015460028201546040516000926001600160a01b031691908381818185875af1925050503d80600081146108da576040519150601f19603f3d011682016040523d82523d6000602084013e6108df565b606091505b505060018301546002840154604080516001600160a01b03909316835260208301919091529192507f1059b0d2b8e49a0e8ed1b6ae745e4e71f102350b241f5bdc99a3a074033d9f2e910160405180910390a1600060028301558061097b5760405162461bcd60e51b8152602060048201526012602482015271151c985b9cd858dd1a5bdb8811985a5b195960721b604482015260640161030f565b5050505050565b3360009081526002602052604090205460ff166109b15760405162461bcd60e51b815260040161030f90610f90565b600081815260036020526040902054819081146109e05760405162461bcd60e51b815260040161030f906110a5565b6000828152600160209081526040808320338452909152902054829060ff1615610a1c5760405162461bcd60e51b815260040161030f90610fd9565b60008381526003602081905260409091200154839060ff1615610a515760405162461bcd60e51b815260040161030f90611021565b60008481526001602081815260408084203385528252808420805460ff19169093179092558683526003905281206004810180549192610a908361107e565b91905055505050505050565b6000825111610af95760405162461bcd60e51b815260206004820152602360248201527f506c6561736520456e746572205661696c6564204f776e65722041646472657360448201526273657360e81b606482015260840161030f565b600081118015610b0a575081518111155b610b8d5760405162461bcd60e51b815260206004820152604860248201527f436f6e6669726d204e756d626572204d7573742042652047726561746572205460448201527f68616e205a65726f2026204c657373205468616e20457175616c204f776e65726064820152670e64098cadccee8d60c31b608482015260a40161030f565b600481905560005b8251811015610d15576000838281518110610bb257610bb2611068565b6020026020010151905060006001600160a01b0316816001600160a01b031603610c125760405162461bcd60e51b8152602060048201526011602482015270696e7661696c656420616472657373657360781b604482015260640161030f565b6001600160a01b03811660009081526002602052604090205460ff1615610ca15760405162461bcd60e51b815260206004820152603f60248201527f416c726561647920686176652077616c6c65742c53657420616e6f746865722060448201527f6163636f756e7473206f7220757365206578697374696e672077616c6c657400606482015260840161030f565b6001600160a01b03166000818152600260205260408120805460ff19166001908117909155815490810182559080527f290decd9548b62a8d60345a988386fc84ba6bc95484008f6362f93160ef3e5630180546001600160a01b031916909117905580610d0d8161107e565b915050610b95565b505050565b5080546000825590600052602060002090810190610d389190610d5c565b50565b5080546000825560050290600052602060002090810190610d389190610d75565b5b80821115610d715760008155600101610d5d565b5090565b5b80821115610d715760008082556001820180546001600160a01b03191690556002820181905560038201805460ff191690556004820155600501610d76565b600060208284031215610dc757600080fd5b5035919050565b80356001600160a01b0381168114610de557600080fd5b919050565b60008060408385031215610dfd57600080fd5b82359150610e0d60208401610dce565b90509250929050565b60008060408385031215610e2957600080fd5b610e3283610dce565b946020939093013593505050565b600060208284031215610e5257600080fd5b610e5b82610dce565b9392505050565b6020808252825182820181905260009190848201906040850190845b81811015610ea35783516001600160a01b031683529284019291840191600101610e7e565b50909695505050505050565b634e487b7160e01b600052604160045260246000fd5b60008060408385031215610ed857600080fd5b823567ffffffffffffffff80821115610ef057600080fd5b818501915085601f830112610f0457600080fd5b8135602082821115610f1857610f18610eaf565b8160051b604051601f19603f83011681018181108682111715610f3d57610f3d610eaf565b604052928352818301935084810182019289841115610f5b57600080fd5b948201945b83861015610f8057610f7186610dce565b85529482019493820193610f60565b9997909101359750505050505050565b60208082526029908201527f4f6e6c79204f776e6572732043616e2041636365737320436f6e74726f6c204f6040820152687665722046756e647360b81b606082015260800190565b60208082526028908201527f5472616e73616374696f6e20416c726561647920436f6e6669726d6564204f6e60408201526708151a1a5cc8125960c21b606082015260800190565b60208082526027908201527f5472616e73616374696f6e20416c7265616479204578656375746564204f6e20604082015266151a1a5cc8125960ca1b606082015260800190565b634e487b7160e01b600052603260045260246000fd5b60006001820161109e57634e487b7160e01b600052601160045260246000fd5b5060010190565b60208082526023908201527f5472616e73616374696f6e204973204e6f74204578697374204f6e205468697360408201526208125960ea1b60608201526080019056fea2646970667358221220219289527bb6d196b2a302a9333cc66013a74765025795758f745d64006a0ea964736f6c63430008140033",
  "immutableReferences": {},
  "source": "// SPDX-License-Identifier: MIT\r\npragma solidity ^0.8.0;\r\n\r\ncontract Multisig {\r\n    address[] public owners;\r\n    mapping(uint => mapping(address => bool)) public isConfirme;\r\n    mapping(address => bool) public isOwner;\r\n    mapping(uint => Transaction) public getTx; // get tx struct by an id\r\n    event checkTx(address to , uint value);\r\n    uint public confirmNum;\r\n\r\n    struct Transaction {\r\n        uint id;\r\n        address to;\r\n        uint value;\r\n        bool executed;\r\n        uint confirmCount;\r\n    }\r\n    Transaction[] private transactions; // if its is public then get value by index\r\n\r\n    modifier onlyOwners() {\r\n        require(\r\n            isOwner[msg.sender],\r\n            \"Only Owners Can Access Control Over Funds\"\r\n        );\r\n        _;\r\n    }\r\n    modifier CheckConfirme(uint id) {\r\n        // require(true => execute code,\"false => code not executed\");\r\n        require(\r\n            !isConfirme[id][msg.sender],\r\n            \"Transaction Already Confirmed On This Id\"\r\n        );\r\n        _;\r\n    }\r\n    modifier txExist(uint id) {\r\n        require(getTx[id].id == id, \"Transaction Is Not Exist On This Id\");\r\n        _;\r\n    }\r\n    modifier CheckExecuted(uint id) {\r\n        require(!getTx[id].executed, \"Transaction Already Executed On This Id\");\r\n        _;\r\n    }\r\n    //0xdD870fA1b7C4700F2BD7f44238821C26f7392148\r\n    //  [\"0xAb8483F64d9C6d1EcF9b849Ae677dD3315835cb2\",\"0x5B38Da6a701c568545dCfcB03FcB875f56beddC4\",\"0x4B20993Bc481177ec7E8f571ceCaE8A9e22C02db\"]\r\n    function setOwners(address[] memory _owners, uint _confirmeNum) external {\r\n        require(_owners.length > 0, \"Please Enter Vailed Owner Addresses\");\r\n        require(\r\n            _confirmeNum > 0 && _confirmeNum <= _owners.length,\r\n            \"Confirm Number Must Be Greater Than Zero & Less Than Equal Owners Length\"\r\n        );\r\n\r\n        confirmNum = _confirmeNum;\r\n\r\n        for (uint i = 0; i < _owners.length; i++) {\r\n            address owner = _owners[i];\r\n            require(owner != address(0), \"invailed adresses\");\r\n            require(!isOwner[owner], \"Already have wallet,Set another accounts or use existing wallet\");\r\n            isOwner[owner] = true;\r\n            owners.push(owner);\r\n        }\r\n    }\r\n    function submit(\r\n        address _to,\r\n        uint _id\r\n    ) public payable onlyOwners CheckConfirme(_id) CheckExecuted(_id) {\r\n        require(getTx[_id].id != _id, \"Transaction Already Submited\");\r\n        require(msg.value >= 1 ether, \"Value Must be Greater than Equal 1 ETH\");\r\n        \r\n        for (uint256 i = 0; i < owners.length; i++) {\r\n            bool check = owners[i] != _to;\r\n            require(check, \"Transaction can't submit to owner\");\r\n        }\r\n\r\n        Transaction memory trans = Transaction({\r\n            id: _id,\r\n            to: _to,\r\n            value: msg.value,\r\n            executed: false,\r\n            confirmCount: 0\r\n        });\r\n\r\n        getTx[_id] = trans;\r\n        transactions.push(trans);\r\n\r\n       \r\n    }\r\n\r\n    function ConfirmTx(\r\n        uint _id\r\n    ) public onlyOwners txExist(_id) CheckConfirme(_id) CheckExecuted(_id) {\r\n        isConfirme[_id][msg.sender] = true;\r\n\r\n        // getTx[_id].confirmCount ++;  Shortcut method\r\n        // Transaction memory trans = getTx[_id]; //Not shortcut explained crearly\r\n        // trans.confirmCount ++;\r\n        Transaction storage trans = getTx[_id]; //Must use strage instead of memory because here we update state variable //Not shortcut explained crearly\r\n        trans.confirmCount++;\r\n    }\r\n\r\n    function Executed(uint id) public onlyOwners txExist(id) CheckExecuted(id) {\r\n        Transaction storage txins = getTx[id];\r\n        require(\r\n            txins.confirmCount >= confirmNum,\r\n            \"Transaction Is Not Confirmed By Requred Confirme Numbers\"\r\n        );\r\n        txins.executed = true;\r\n        (bool sent,) = txins.to.call{value: txins.value}(\"\");\r\n\r\n        // delete owners;\r\n\r\n        emit checkTx(txins.to, txins.value);\r\n        txins.value = 0 ether;\r\n\r\n        // (bool sent, ) = txins.to.call{value: txins.value}(\"\");\r\n        require(sent, \"Transaction Failed\");\r\n    }\r\n    function getOwners() public view returns (address[] memory) {\r\n        return owners;\r\n    }\r\n    function resetwallet() public {\r\n\r\n        for (uint256 i = 0; i < owners.length; i++) {\r\n            isOwner[owners[i]] = false;\r\n        }\r\n        delete owners;\r\n        delete transactions;\r\n    }\r\n}\r\n",
  "sourcePath": "D:\\Blockchain\\Truffle\\Marketplace\\truffle\\contracts\\MultiSigWallet.sol",
  "compiler": {
    "name": "solc",
    "version": "0.8.20+commit.a1b79de6.Emscripten.clang"
  },
  "schemaVersion": "3.4.16",
  "updatedAt": "2025-01-06T08:06:21.856Z",
  "devdoc": {
    "kind": "dev",
    "methods": {},
    "version": 1
  },
  "userdoc": {
    "kind": "user",
    "methods": {},
    "version": 1
  }
}