{
  "contractName": "MyNFT",
  "abi": [
    {
      "inputs": [],
      "stateMutability": "nonpayable",
      "type": "constructor"
    },
    {
      "inputs": [
        {
          "internalType": "address",
          "name": "sender",
          "type": "address"
        },
        {
          "internalType": "uint256",
          "name": "tokenId",
          "type": "uint256"
        },
        {
          "internalType": "address",
          "name": "owner",
          "type": "address"
        }
      ],
      "name": "ERC721IncorrectOwner",
      "type": "error"
    },
    {
      "inputs": [
        {
          "internalType": "address",
          "name": "operator",
          "type": "address"
        },
        {
          "internalType": "uint256",
          "name": "tokenId",
          "type": "uint256"
        }
      ],
      "name": "ERC721InsufficientApproval",
      "type": "error"
    },
    {
      "inputs": [
        {
          "internalType": "address",
          "name": "approver",
          "type": "address"
        }
      ],
      "name": "ERC721InvalidApprover",
      "type": "error"
    },
    {
      "inputs": [
        {
          "internalType": "address",
          "name": "operator",
          "type": "address"
        }
      ],
      "name": "ERC721InvalidOperator",
      "type": "error"
    },
    {
      "inputs": [
        {
          "internalType": "address",
          "name": "owner",
          "type": "address"
        }
      ],
      "name": "ERC721InvalidOwner",
      "type": "error"
    },
    {
      "inputs": [
        {
          "internalType": "address",
          "name": "receiver",
          "type": "address"
        }
      ],
      "name": "ERC721InvalidReceiver",
      "type": "error"
    },
    {
      "inputs": [
        {
          "internalType": "address",
          "name": "sender",
          "type": "address"
        }
      ],
      "name": "ERC721InvalidSender",
      "type": "error"
    },
    {
      "inputs": [
        {
          "internalType": "uint256",
          "name": "tokenId",
          "type": "uint256"
        }
      ],
      "name": "ERC721NonexistentToken",
      "type": "error"
    },
    {
      "inputs": [
        {
          "internalType": "address",
          "name": "owner",
          "type": "address"
        }
      ],
      "name": "OwnableInvalidOwner",
      "type": "error"
    },
    {
      "inputs": [
        {
          "internalType": "address",
          "name": "account",
          "type": "address"
        }
      ],
      "name": "OwnableUnauthorizedAccount",
      "type": "error"
    },
    {
      "anonymous": false,
      "inputs": [
        {
          "indexed": true,
          "internalType": "address",
          "name": "owner",
          "type": "address"
        },
        {
          "indexed": true,
          "internalType": "address",
          "name": "approved",
          "type": "address"
        },
        {
          "indexed": true,
          "internalType": "uint256",
          "name": "tokenId",
          "type": "uint256"
        }
      ],
      "name": "Approval",
      "type": "event"
    },
    {
      "anonymous": false,
      "inputs": [
        {
          "indexed": true,
          "internalType": "address",
          "name": "owner",
          "type": "address"
        },
        {
          "indexed": true,
          "internalType": "address",
          "name": "operator",
          "type": "address"
        },
        {
          "indexed": false,
          "internalType": "bool",
          "name": "approved",
          "type": "bool"
        }
      ],
      "name": "ApprovalForAll",
      "type": "event"
    },
    {
      "anonymous": false,
      "inputs": [
        {
          "indexed": false,
          "internalType": "uint256",
          "name": "_fromTokenId",
          "type": "uint256"
        },
        {
          "indexed": false,
          "internalType": "uint256",
          "name": "_toTokenId",
          "type": "uint256"
        }
      ],
      "name": "BatchMetadataUpdate",
      "type": "event"
    },
    {
      "anonymous": false,
      "inputs": [
        {
          "indexed": false,
          "internalType": "uint256",
          "name": "_tokenId",
          "type": "uint256"
        }
      ],
      "name": "MetadataUpdate",
      "type": "event"
    },
    {
      "anonymous": false,
      "inputs": [
        {
          "indexed": false,
          "internalType": "uint256",
          "name": "tokenId",
          "type": "uint256"
        }
      ],
      "name": "Minted",
      "type": "event"
    },
    {
      "anonymous": false,
      "inputs": [
        {
          "indexed": true,
          "internalType": "address",
          "name": "previousOwner",
          "type": "address"
        },
        {
          "indexed": true,
          "internalType": "address",
          "name": "newOwner",
          "type": "address"
        }
      ],
      "name": "OwnershipTransferred",
      "type": "event"
    },
    {
      "anonymous": false,
      "inputs": [
        {
          "indexed": true,
          "internalType": "address",
          "name": "from",
          "type": "address"
        },
        {
          "indexed": true,
          "internalType": "address",
          "name": "to",
          "type": "address"
        },
        {
          "indexed": true,
          "internalType": "uint256",
          "name": "tokenId",
          "type": "uint256"
        }
      ],
      "name": "Transfer",
      "type": "event"
    },
    {
      "anonymous": false,
      "inputs": [
        {
          "indexed": false,
          "internalType": "uint256[]",
          "name": "array",
          "type": "uint256[]"
        },
        {
          "indexed": false,
          "internalType": "string",
          "name": "message",
          "type": "string"
        },
        {
          "indexed": false,
          "internalType": "uint256",
          "name": "tokenId",
          "type": "uint256"
        }
      ],
      "name": "remover",
      "type": "event"
    },
    {
      "inputs": [
        {
          "internalType": "uint256",
          "name": "",
          "type": "uint256"
        }
      ],
      "name": "_mintedTokens",
      "outputs": [
        {
          "internalType": "uint256",
          "name": "",
          "type": "uint256"
        }
      ],
      "stateMutability": "view",
      "type": "function",
      "constant": true
    },
    {
      "inputs": [],
      "name": "_tokenId",
      "outputs": [
        {
          "internalType": "uint256",
          "name": "",
          "type": "uint256"
        }
      ],
      "stateMutability": "view",
      "type": "function",
      "constant": true
    },
    {
      "inputs": [
        {
          "internalType": "address",
          "name": "to",
          "type": "address"
        },
        {
          "internalType": "uint256",
          "name": "tokenId",
          "type": "uint256"
        }
      ],
      "name": "approve",
      "outputs": [],
      "stateMutability": "nonpayable",
      "type": "function"
    },
    {
      "inputs": [
        {
          "internalType": "address",
          "name": "owner",
          "type": "address"
        }
      ],
      "name": "balanceOf",
      "outputs": [
        {
          "internalType": "uint256",
          "name": "",
          "type": "uint256"
        }
      ],
      "stateMutability": "view",
      "type": "function",
      "constant": true
    },
    {
      "inputs": [
        {
          "internalType": "uint256",
          "name": "tokenId",
          "type": "uint256"
        }
      ],
      "name": "getApproved",
      "outputs": [
        {
          "internalType": "address",
          "name": "",
          "type": "address"
        }
      ],
      "stateMutability": "view",
      "type": "function",
      "constant": true
    },
    {
      "inputs": [
        {
          "internalType": "address",
          "name": "owner",
          "type": "address"
        },
        {
          "internalType": "address",
          "name": "operator",
          "type": "address"
        }
      ],
      "name": "isApprovedForAll",
      "outputs": [
        {
          "internalType": "bool",
          "name": "",
          "type": "bool"
        }
      ],
      "stateMutability": "view",
      "type": "function",
      "constant": true
    },
    {
      "inputs": [],
      "name": "name",
      "outputs": [
        {
          "internalType": "string",
          "name": "",
          "type": "string"
        }
      ],
      "stateMutability": "view",
      "type": "function",
      "constant": true
    },
    {
      "inputs": [],
      "name": "owner",
      "outputs": [
        {
          "internalType": "address",
          "name": "",
          "type": "address"
        }
      ],
      "stateMutability": "view",
      "type": "function",
      "constant": true
    },
    {
      "inputs": [
        {
          "internalType": "uint256",
          "name": "tokenId",
          "type": "uint256"
        }
      ],
      "name": "ownerOf",
      "outputs": [
        {
          "internalType": "address",
          "name": "",
          "type": "address"
        }
      ],
      "stateMutability": "view",
      "type": "function",
      "constant": true
    },
    {
      "inputs": [
        {
          "internalType": "uint256",
          "name": "",
          "type": "uint256"
        },
        {
          "internalType": "uint256",
          "name": "",
          "type": "uint256"
        }
      ],
      "name": "ownershipHistory",
      "outputs": [
        {
          "internalType": "address",
          "name": "from",
          "type": "address"
        },
        {
          "internalType": "address",
          "name": "to",
          "type": "address"
        },
        {
          "internalType": "uint256",
          "name": "tokenIds",
          "type": "uint256"
        }
      ],
      "stateMutability": "view",
      "type": "function",
      "constant": true
    },
    {
      "inputs": [
        {
          "internalType": "uint256",
          "name": "",
          "type": "uint256"
        }
      ],
      "name": "price",
      "outputs": [
        {
          "internalType": "uint256",
          "name": "",
          "type": "uint256"
        }
      ],
      "stateMutability": "view",
      "type": "function",
      "constant": true
    },
    {
      "inputs": [],
      "name": "renounceOwnership",
      "outputs": [],
      "stateMutability": "nonpayable",
      "type": "function"
    },
    {
      "inputs": [
        {
          "internalType": "address",
          "name": "from",
          "type": "address"
        },
        {
          "internalType": "address",
          "name": "to",
          "type": "address"
        },
        {
          "internalType": "uint256",
          "name": "tokenId",
          "type": "uint256"
        }
      ],
      "name": "safeTransferFrom",
      "outputs": [],
      "stateMutability": "nonpayable",
      "type": "function"
    },
    {
      "inputs": [
        {
          "internalType": "address",
          "name": "from",
          "type": "address"
        },
        {
          "internalType": "address",
          "name": "to",
          "type": "address"
        },
        {
          "internalType": "uint256",
          "name": "tokenId",
          "type": "uint256"
        },
        {
          "internalType": "bytes",
          "name": "data",
          "type": "bytes"
        }
      ],
      "name": "safeTransferFrom",
      "outputs": [],
      "stateMutability": "nonpayable",
      "type": "function"
    },
    {
      "inputs": [
        {
          "internalType": "address",
          "name": "operator",
          "type": "address"
        },
        {
          "internalType": "bool",
          "name": "approved",
          "type": "bool"
        }
      ],
      "name": "setApprovalForAll",
      "outputs": [],
      "stateMutability": "nonpayable",
      "type": "function"
    },
    {
      "inputs": [
        {
          "internalType": "bytes4",
          "name": "interfaceId",
          "type": "bytes4"
        }
      ],
      "name": "supportsInterface",
      "outputs": [
        {
          "internalType": "bool",
          "name": "",
          "type": "bool"
        }
      ],
      "stateMutability": "view",
      "type": "function",
      "constant": true
    },
    {
      "inputs": [],
      "name": "symbol",
      "outputs": [
        {
          "internalType": "string",
          "name": "",
          "type": "string"
        }
      ],
      "stateMutability": "view",
      "type": "function",
      "constant": true
    },
    {
      "inputs": [
        {
          "internalType": "address",
          "name": "",
          "type": "address"
        },
        {
          "internalType": "uint256",
          "name": "",
          "type": "uint256"
        }
      ],
      "name": "tokenIds",
      "outputs": [
        {
          "internalType": "uint256",
          "name": "",
          "type": "uint256"
        }
      ],
      "stateMutability": "view",
      "type": "function",
      "constant": true
    },
    {
      "inputs": [
        {
          "internalType": "uint256",
          "name": "tokenId",
          "type": "uint256"
        }
      ],
      "name": "tokenURI",
      "outputs": [
        {
          "internalType": "string",
          "name": "",
          "type": "string"
        }
      ],
      "stateMutability": "view",
      "type": "function",
      "constant": true
    },
    {
      "inputs": [
        {
          "internalType": "address",
          "name": "from",
          "type": "address"
        },
        {
          "internalType": "address",
          "name": "to",
          "type": "address"
        },
        {
          "internalType": "uint256",
          "name": "tokenId",
          "type": "uint256"
        }
      ],
      "name": "transferFrom",
      "outputs": [],
      "stateMutability": "nonpayable",
      "type": "function"
    },
    {
      "inputs": [
        {
          "internalType": "address",
          "name": "newOwner",
          "type": "address"
        }
      ],
      "name": "transferOwnership",
      "outputs": [],
      "stateMutability": "nonpayable",
      "type": "function"
    },
    {
      "inputs": [
        {
          "internalType": "address",
          "name": "recipient",
          "type": "address"
        },
        {
          "internalType": "string",
          "name": "_tokenURI",
          "type": "string"
        }
      ],
      "name": "mintNft",
      "outputs": [
        {
          "internalType": "uint256",
          "name": "",
          "type": "uint256"
        }
      ],
      "stateMutability": "nonpayable",
      "type": "function"
    },
    {
      "inputs": [
        {
          "internalType": "uint256",
          "name": "_tokenid",
          "type": "uint256"
        },
        {
          "internalType": "uint256",
          "name": "_price",
          "type": "uint256"
        }
      ],
      "name": "sellNft",
      "outputs": [],
      "stateMutability": "nonpayable",
      "type": "function"
    },
    {
      "inputs": [
        {
          "internalType": "uint256",
          "name": "tokenId",
          "type": "uint256"
        }
      ],
      "name": "buyNft",
      "outputs": [],
      "stateMutability": "payable",
      "type": "function",
      "payable": true
    },
    {
      "inputs": [],
      "name": "getAllMintedTokens",
      "outputs": [
        {
          "internalType": "uint256[]",
          "name": "",
          "type": "uint256[]"
        }
      ],
      "stateMutability": "view",
      "type": "function",
      "constant": true
    },
    {
      "inputs": [
        {
          "internalType": "address",
          "name": "account",
          "type": "address"
        }
      ],
      "name": "getAddressTokenIds",
      "outputs": [
        {
          "internalType": "uint256[]",
          "name": "",
          "type": "uint256[]"
        }
      ],
      "stateMutability": "view",
      "type": "function",
      "constant": true
    },
    {
      "inputs": [
        {
          "internalType": "uint256",
          "name": "tokenId",
          "type": "uint256"
        }
      ],
      "name": "getOwnershipHistory",
      "outputs": [
        {
          "components": [
            {
              "internalType": "address",
              "name": "from",
              "type": "address"
            },
            {
              "internalType": "address",
              "name": "to",
              "type": "address"
            },
            {
              "internalType": "uint256",
              "name": "tokenIds",
              "type": "uint256"
            }
          ],
          "internalType": "struct MyNFT.History[]",
          "name": "",
          "type": "tuple[]"
        }
      ],
      "stateMutability": "view",
      "type": "function",
      "constant": true
    },
    {
      "inputs": [
        {
          "internalType": "address",
          "name": "to",
          "type": "address"
        },
        {
          "internalType": "uint256",
          "name": "tokenId",
          "type": "uint256"
        }
      ],
      "name": "transferNFT",
      "outputs": [],
      "stateMutability": "nonpayable",
      "type": "function"
    },
    {
      "inputs": [
        {
          "internalType": "address",
          "name": "_owner",
          "type": "address"
        },
        {
          "internalType": "address",
          "name": "operator",
          "type": "address"
        }
      ],
      "name": "checkIsAppForAll",
      "outputs": [
        {
          "internalType": "bool",
          "name": "",
          "type": "bool"
        }
      ],
      "stateMutability": "view",
      "type": "function",
      "constant": true
    },
    {
      "inputs": [
        {
          "internalType": "address",
          "name": "contAddr",
          "type": "address"
        },
        {
          "internalType": "address",
          "name": "tokenId",
          "type": "address"
        }
      ],
      "name": "isApproval",
      "outputs": [
        {
          "internalType": "bool",
          "name": "",
          "type": "bool"
        }
      ],
      "stateMutability": "view",
      "type": "function",
      "constant": true
    },
    {
      "inputs": [
        {
          "internalType": "uint256",
          "name": "tokenId",
          "type": "uint256"
        }
      ],
      "name": "burnNft",
      "outputs": [],
      "stateMutability": "nonpayable",
      "type": "function"
    }
  ],
  "bytecode": "0x60806040523480156200001157600080fd5b503360405180604001604052806008815260200167536f6674776f726b60c01b815250604051806040016040528060018152602001605360f81b81525081600090816200005f919062000257565b5060016200006e828262000257565b5050506001600160a01b038116620000a157604051631e4fbdf760e01b8152600060048201526024015b60405180910390fd5b620000ac81620000be565b50620000b83362000110565b62000323565b600780546001600160a01b038381166001600160a01b0319831681179093556040519116919082907f8be0079c531659141344cd1fd0a4f28419497f9722a3daafe3b4186f6b6457e090600090a35050565b6200011a62000154565b6001600160a01b0381166200014657604051631e4fbdf760e01b81526000600482015260240162000098565b6200015181620000be565b50565b6007546001600160a01b03163314620001b05760405162461bcd60e51b815260206004820152601760248201527f43616c6c6572206973206e6f7420746865206f776e6572000000000000000000604482015260640162000098565b565b634e487b7160e01b600052604160045260246000fd5b600181811c90821680620001dd57607f821691505b602082108103620001fe57634e487b7160e01b600052602260045260246000fd5b50919050565b601f8211156200025257600081815260208120601f850160051c810160208610156200022d5750805b601f850160051c820191505b818110156200024e5782815560010162000239565b5050505b505050565b81516001600160401b03811115620002735762000273620001b2565b6200028b81620002848454620001c8565b8462000204565b602080601f831160018114620002c35760008415620002aa5750858301515b600019600386901b1c1916600185901b1785556200024e565b600085815260208120601f198616915b82811015620002f457888601518255948401946001909101908401620002d3565b5085821015620003135787850151600019600388901b60f8161c191681555b5050505050600190811b01905550565b61228480620003336000396000f3fe6080604052600436106101d85760003560e01c80635208eb0911610102578063a22cb46511610095578063c9cf2adc11610064578063c9cf2adc1461055c578063e985e9c5146105a2578063f1dbaccb146105c2578063f2fde38b146105ef57600080fd5b8063a22cb465146104dc578063b88d4fde146104fc578063c237f6271461051c578063c87b56dd1461053c57600080fd5b80638a7024ea116100d15780638a7024ea146104695780638da5cb5b1461048957806394ab67fe146104a757806395d89b41146104c757600080fd5b80635208eb09146103f45780636352211e1461041457806370a0823114610434578063715018a61461045457600080fd5b8063243adbdd1161017a578063339bb37b11610149578063339bb37b146103745780633d5efefe146103945780633de419e9146103b457806342842e0e146103d457600080fd5b8063243adbdd146102fe578063248225141461031157806326a49e37146103275780633290c0fa1461035457600080fd5b8063081812fc116101b6578063081812fc14610256578063095ea7b31461028e57806311f87b19146102b057806323b872dd146102de57600080fd5b806301ffc9a7146101dd57806306fdde0314610212578063080b017914610234575b600080fd5b3480156101e957600080fd5b506101fd6101f8366004611b60565b61060f565b60405190151581526020015b60405180910390f35b34801561021e57600080fd5b5061022761063a565b6040516102099190611bcd565b34801561024057600080fd5b506102496106cc565b6040516102099190611be0565b34801561026257600080fd5b50610276610271366004611c24565b610723565b6040516001600160a01b039091168152602001610209565b34801561029a57600080fd5b506102ae6102a9366004611c59565b61074c565b005b3480156102bc57600080fd5b506102d06102cb366004611d0f565b61075b565b604051908152602001610209565b3480156102ea57600080fd5b506102ae6102f9366004611d71565b61082c565b6102ae61030c366004611c24565b6108bc565b34801561031d57600080fd5b506102d060085481565b34801561033357600080fd5b506102d0610342366004611c24565b600c6020526000908152604090205481565b34801561036057600080fd5b506101fd61036f366004611dad565b610ce3565b34801561038057600080fd5b506102d061038f366004611c24565b610cf6565b3480156103a057600080fd5b506102ae6103af366004611c24565b610d17565b3480156103c057600080fd5b506102d06103cf366004611c59565b610d2b565b3480156103e057600080fd5b506102ae6103ef366004611d71565b610d5c565b34801561040057600080fd5b506102ae61040f366004611de0565b610d7c565b34801561042057600080fd5b5061027661042f366004611c24565b610dc7565b34801561044057600080fd5b506102d061044f366004611e02565b610dd2565b34801561046057600080fd5b506102ae610e1a565b34801561047557600080fd5b506101fd610484366004611dad565b610e2e565b34801561049557600080fd5b506007546001600160a01b0316610276565b3480156104b357600080fd5b506102ae6104c2366004611c59565b610e3a565b3480156104d357600080fd5b50610227610efa565b3480156104e857600080fd5b506102ae6104f7366004611e1d565b610f09565b34801561050857600080fd5b506102ae610517366004611e59565b610f14565b34801561052857600080fd5b50610249610537366004611e02565b610f2c565b34801561054857600080fd5b50610227610557366004611c24565b610f98565b34801561056857600080fd5b5061057c610577366004611de0565b6110a9565b604080516001600160a01b03948516815293909216602084015290820152606001610209565b3480156105ae57600080fd5b506101fd6105bd366004611dad565b6110f6565b3480156105ce57600080fd5b506105e26105dd366004611c24565b611124565b6040516102099190611ed5565b3480156105fb57600080fd5b506102ae61060a366004611e02565b6111be565b60006001600160e01b03198216632483248360e11b14806106345750610634826111f9565b92915050565b60606000805461064990611f3a565b80601f016020809104026020016040519081016040528092919081815260200182805461067590611f3a565b80156106c25780601f10610697576101008083540402835291602001916106c2565b820191906000526020600020905b8154815290600101906020018083116106a557829003601f168201915b5050505050905090565b606060098054806020026020016040519081016040528092919081815260200182805480156106c257602002820191906000526020600020905b815481526020019060010190808311610706575050505050905090565b600061072e82611249565b506000828152600460205260409020546001600160a01b0316610634565b610757828233611282565b5050565b60006001600860008282546107709190611f8a565b9091555050600854610782848261128f565b61078c81846112f4565b6008546009805460018181019092557f6e1540171b6c0c960b71a7020d9f60077f6af931a8bbf590da0223dacf75c7af018290556001600160a01b0386166000908152600b60209081526040808320805494850181558352912090910191909155517f176b02bb2d12439ff7a20b59f402cca16c76f50508b13ef3166a600eb719354a9061081d9083815260200190565b60405180910390a19392505050565b6001600160a01b03821661085b57604051633250574960e11b8152600060048201526024015b60405180910390fd5b6000610868838333611344565b9050836001600160a01b0316816001600160a01b0316146108b6576040516364283d7b60e01b81526001600160a01b0380861660048301526024820184905282166044820152606401610852565b50505050565b60006108c782610dc7565b6000838152600c60209081526040808320546001600160a01b0385168452600b90925282209293509190805b8254811015610939578583828154811061090f5761090f611f9d565b90600052602060002001540361092757809150610939565b8061093181611fb3565b9150506108f3565b508154829061094a90600190611fcc565b8154811061095a5761095a611f9d565b906000526020600020015482828154811061097757610977611f9d565b90600052602060002001819055508180548061099557610995611fdf565b60019003818190600052602060002001600090559055600083116109fb5760405162461bcd60e51b815260206004820152601960248201527f546f6b656e206e6f74206c697374656420666f722073616c65000000000000006044820152606401610852565b336001600160a01b03851603610a635760405162461bcd60e51b815260206004820152602760248201527f596f752061726520616c726561647920746865206f776e6572206f662074686960448201526639903a37b5b2b760c91b6064820152608401610852565b82341015610ab35760405162461bcd60e51b815260206004820152601d60248201527f496e73756666696369656e742066756e647320746f20627579204e46540000006044820152606401610852565b610abe84338761143d565b6000858152600c6020908152604080832083905580516060810182526001600160a01b03888116808352338386018181528486018d8152918852600b8752858820805460018082018355918a52888a20018e90558d8952600a885286892080548083018255908a52978920865160039099020180546001600160a01b031990811699871699909917815591519082018054909816941693909317909555935160029091015590519092919086908381818185875af1925050503d8060008114610ba3576040519150601f19603f3d011682016040523d82523d6000602084013e610ba8565b606091505b5050905080610bf95760405162461bcd60e51b815260206004820152601f60248201527f46756e6473207472616e7366657220746f2073656c6c6572206661696c6564006044820152606401610852565b6000610c058634611fcc565b90508015610ca057604051600090339083908381818185875af1925050503d8060008114610c4f576040519150601f19603f3d011682016040523d82523d6000602084013e610c54565b606091505b5050905080610c9e5760405162461bcd60e51b81526020600482015260166024820152751499599d5b99081d1bc8189d5e595c8819985a5b195960521b6044820152606401610852565b505b7ff297e5bd6b27c6ea89a53d6a84b94ab82004bb0462424fa847592612e24cf2d28589604051610cd1929190611ff5565b60405180910390a15050505050505050565b6000610cef8383610ce3565b9392505050565b60098181548110610d0657600080fd5b600091825260209091200154905081565b610d1f6114ed565b610d2881611547565b50565b600b6020528160005260406000208181548110610d4757600080fd5b90600052602060002001600091509150505481565b610d7783838360405180602001604052806000815250610f14565b505050565b33610d8683610dc7565b6001600160a01b031614610dac5760405162461bcd60e51b81526004016108529061207c565b6000828152600c60205260409020819055610757308361074c565b600061063482611249565b60006001600160a01b038216610dfe576040516322718ad960e21b815260006004820152602401610852565b506001600160a01b031660009081526003602052604090205490565b610e226114ed565b610e2c6000611582565b565b6000610cef83836110f6565b33610e4482610dc7565b6001600160a01b031614610e6a5760405162461bcd60e51b81526004016108529061207c565b604080516060810182523381526001600160a01b0384811660208084019182528385018681526000878152600a835295862080546001818101835591885292909620855160039093020180549285166001600160a01b0319938416178155925195830180549690941695909116949094179091559151600290920191909155610d77610ef33390565b848461143d565b60606001805461064990611f3a565b6107573383836115d4565b610f1f84848461082c565b6108b63385858585611673565b6001600160a01b0381166000908152600b6020908152604091829020805483518184028101840190945280845260609392830182828015610f8c57602002820191906000526020600020905b815481526020019060010190808311610f78575b50505050509050919050565b6060610fa382611249565b5060008281526006602052604081208054610fbd90611f3a565b80601f0160208091040260200160405190810160405280929190818152602001828054610fe990611f3a565b80156110365780601f1061100b57610100808354040283529160200191611036565b820191906000526020600020905b81548152906001019060200180831161101957829003601f168201915b50505050509050600061105460408051602081019091526000815290565b90508051600003611066575092915050565b8151156110985780826040516020016110809291906120bf565b60405160208183030381529060405292505050919050565b6110a18461179e565b949350505050565b600a60205281600052604060002081815481106110c557600080fd5b60009182526020909120600390910201805460018201546002909201546001600160a01b0391821694509116915083565b6001600160a01b03918216600090815260056020908152604080832093909416825291909152205460ff1690565b6060600a6000838152602001908152602001600020805480602002602001604051908101604052809291908181526020016000905b828210156111b3576000848152602090819020604080516060810182526003860290920180546001600160a01b03908116845260018083015490911684860152600290910154918301919091529083529092019101611159565b505050509050919050565b6111c66114ed565b6001600160a01b0381166111f057604051631e4fbdf760e01b815260006004820152602401610852565b610d2881611582565b60006001600160e01b031982166380ac58cd60e01b148061122a57506001600160e01b03198216635b5e139f60e01b145b8061063457506301ffc9a760e01b6001600160e01b0319831614610634565b6000818152600260205260408120546001600160a01b03168061063457604051637e27328960e01b815260048101849052602401610852565b610d778383836001611812565b6001600160a01b0382166112b957604051633250574960e11b815260006004820152602401610852565b60006112c783836000611344565b90506001600160a01b03811615610d77576040516339e3563760e11b815260006004820152602401610852565b600082815260066020526040902061130c8282612134565b506040518281527ff8e1a15aba9398e019f0b49df1a4fde98ee17ae345cb5f6b5e2c27f5033e8ce79060200160405180910390a15050565b6000828152600260205260408120546001600160a01b039081169083161561137157611371818486611918565b6001600160a01b038116156113af5761138e600085600080611812565b6001600160a01b038116600090815260036020526040902080546000190190555b6001600160a01b038516156113de576001600160a01b0385166000908152600360205260409020805460010190555b60008481526002602052604080822080546001600160a01b0319166001600160a01b0389811691821790925591518793918516917fddf252ad1be2c89b69c2b068fc378daa952ba7f163c4a11628f55a4df523b3ef91a4949350505050565b6001600160a01b03821661146757604051633250574960e11b815260006004820152602401610852565b600061147583836000611344565b90506001600160a01b0381166114a157604051637e27328960e01b815260048101839052602401610852565b836001600160a01b0316816001600160a01b0316146108b6576040516364283d7b60e01b81526001600160a01b0380861660048301526024820184905282166044820152606401610852565b6007546001600160a01b03163314610e2c5760405162461bcd60e51b815260206004820152601760248201527f43616c6c6572206973206e6f7420746865206f776e65720000000000000000006044820152606401610852565b60006115566000836000611344565b90506001600160a01b03811661075757604051637e27328960e01b815260048101839052602401610852565b600780546001600160a01b038381166001600160a01b0319831681179093556040519116919082907f8be0079c531659141344cd1fd0a4f28419497f9722a3daafe3b4186f6b6457e090600090a35050565b6001600160a01b03821661160657604051630b61174360e31b81526001600160a01b0383166004820152602401610852565b6001600160a01b03838116600081815260056020908152604080832094871680845294825291829020805460ff191686151590811790915591519182527f17307eab39ab6107e8899845ad3d59bd9653f200f220920489ca2b5937696c31910160405180910390a3505050565b6001600160a01b0383163b1561179757604051630a85bd0160e11b81526001600160a01b0384169063150b7a02906116b59088908890879087906004016121f4565b6020604051808303816000875af19250505080156116f0575060408051601f3d908101601f191682019092526116ed91810190612231565b60015b611759573d80801561171e576040519150601f19603f3d011682016040523d82523d6000602084013e611723565b606091505b50805160000361175157604051633250574960e11b81526001600160a01b0385166004820152602401610852565b805181602001fd5b6001600160e01b03198116630a85bd0160e11b1461179557604051633250574960e11b81526001600160a01b0385166004820152602401610852565b505b5050505050565b60606117a982611249565b5060006117c160408051602081019091526000815290565b905060008151116117e15760405180602001604052806000815250610cef565b806117eb8461197c565b6040516020016117fc9291906120bf565b6040516020818303038152906040529392505050565b808061182657506001600160a01b03821615155b156118e857600061183684611249565b90506001600160a01b038316158015906118625750826001600160a01b0316816001600160a01b031614155b8015611875575061187381846110f6565b155b1561189e5760405163a9fbf51f60e01b81526001600160a01b0384166004820152602401610852565b81156118e65783856001600160a01b0316826001600160a01b03167f8c5be1e5ebec7d5bd14f71427d1e84f3dd0314c0f7b2291e5b200ac8c7c3b92560405160405180910390a45b505b5050600090815260046020526040902080546001600160a01b0319166001600160a01b0392909216919091179055565b611923838383611a0f565b610d77576001600160a01b03831661195157604051637e27328960e01b815260048101829052602401610852565b60405163177e802f60e01b81526001600160a01b038316600482015260248101829052604401610852565b6060600061198983611a72565b600101905060008167ffffffffffffffff8111156119a9576119a9611c83565b6040519080825280601f01601f1916602001820160405280156119d3576020820181803683370190505b5090508181016020015b600019016f181899199a1a9b1b9c1cb0b131b232b360811b600a86061a8153600a85049450846119dd57509392505050565b60006001600160a01b038316158015906110a15750826001600160a01b0316846001600160a01b03161480611a495750611a4984846110f6565b806110a15750506000908152600460205260409020546001600160a01b03908116911614919050565b60008072184f03e93ff9f4daa797ed6e38ed64bf6a1f0160401b8310611ab15772184f03e93ff9f4daa797ed6e38ed64bf6a1f0160401b830492506040015b6d04ee2d6d415b85acef81000000008310611add576d04ee2d6d415b85acef8100000000830492506020015b662386f26fc100008310611afb57662386f26fc10000830492506010015b6305f5e1008310611b13576305f5e100830492506008015b6127108310611b2757612710830492506004015b60648310611b39576064830492506002015b600a83106106345760010192915050565b6001600160e01b031981168114610d2857600080fd5b600060208284031215611b7257600080fd5b8135610cef81611b4a565b60005b83811015611b98578181015183820152602001611b80565b50506000910152565b60008151808452611bb9816020860160208601611b7d565b601f01601f19169290920160200192915050565b602081526000610cef6020830184611ba1565b6020808252825182820181905260009190848201906040850190845b81811015611c1857835183529284019291840191600101611bfc565b50909695505050505050565b600060208284031215611c3657600080fd5b5035919050565b80356001600160a01b0381168114611c5457600080fd5b919050565b60008060408385031215611c6c57600080fd5b611c7583611c3d565b946020939093013593505050565b634e487b7160e01b600052604160045260246000fd5b600067ffffffffffffffff80841115611cb457611cb4611c83565b604051601f8501601f19908116603f01168101908282118183101715611cdc57611cdc611c83565b81604052809350858152868686011115611cf557600080fd5b858560208301376000602087830101525050509392505050565b60008060408385031215611d2257600080fd5b611d2b83611c3d565b9150602083013567ffffffffffffffff811115611d4757600080fd5b8301601f81018513611d5857600080fd5b611d6785823560208401611c99565b9150509250929050565b600080600060608486031215611d8657600080fd5b611d8f84611c3d565b9250611d9d60208501611c3d565b9150604084013590509250925092565b60008060408385031215611dc057600080fd5b611dc983611c3d565b9150611dd760208401611c3d565b90509250929050565b60008060408385031215611df357600080fd5b50508035926020909101359150565b600060208284031215611e1457600080fd5b610cef82611c3d565b60008060408385031215611e3057600080fd5b611e3983611c3d565b915060208301358015158114611e4e57600080fd5b809150509250929050565b60008060008060808587031215611e6f57600080fd5b611e7885611c3d565b9350611e8660208601611c3d565b925060408501359150606085013567ffffffffffffffff811115611ea957600080fd5b8501601f81018713611eba57600080fd5b611ec987823560208401611c99565b91505092959194509250565b602080825282518282018190526000919060409081850190868401855b82811015611f2d57815180516001600160a01b0390811686528782015116878601528501518585015260609093019290850190600101611ef2565b5091979650505050505050565b600181811c90821680611f4e57607f821691505b602082108103611f6e57634e487b7160e01b600052602260045260246000fd5b50919050565b634e487b7160e01b600052601160045260246000fd5b8082018082111561063457610634611f74565b634e487b7160e01b600052603260045260246000fd5b600060018201611fc557611fc5611f74565b5060010190565b8181038181111561063457610634611f74565b634e487b7160e01b600052603160045260246000fd5b6000606082016060835280855480835260808501915086600052602092508260002060005b828110156120365781548452928401926001918201910161201a565b50505083810382850152601c81527f7468697320697320656d69747465642066726f6d2072656d6f76657200000000918101919091526040928301939093525001919050565b60208082526023908201527f43616c6c6572206973206e6f7420746865206f776e6572206f6620746869732060408201526213919560ea1b606082015260800190565b600083516120d1818460208801611b7d565b8351908301906120e5818360208801611b7d565b01949350505050565b601f821115610d7757600081815260208120601f850160051c810160208610156121155750805b601f850160051c820191505b8181101561179557828155600101612121565b815167ffffffffffffffff81111561214e5761214e611c83565b6121628161215c8454611f3a565b846120ee565b602080601f831160018114612197576000841561217f5750858301515b600019600386901b1c1916600185901b178555611795565b600085815260208120601f198616915b828110156121c6578886015182559484019460019091019084016121a7565b50858210156121e45787850151600019600388901b60f8161c191681555b5050505050600190811b01905550565b6001600160a01b038581168252841660208201526040810183905260806060820181905260009061222790830184611ba1565b9695505050505050565b60006020828403121561224357600080fd5b8151610cef81611b4a56fea2646970667358221220fb5b2500be27e205c5d88d26c5f0cdef773781af2f0d2c26490f049ff2b7534d64736f6c63430008140033",
  "immutableReferences": {},
  "source": "// SPDX-License-Identifier: MIT\r\npragma solidity ^0.8.0;\r\n\r\nimport \"@openzeppelin/contracts/token/ERC721/ERC721.sol\";\r\nimport \"@openzeppelin/contracts/token/ERC721/extensions/ERC721URIStorage.sol\";\r\nimport \"@openzeppelin/contracts/access/Ownable.sol\";\r\n\r\ncontract MyNFT is ERC721URIStorage, Ownable {\r\n    uint256 public _tokenId;\r\n    uint256[] public _mintedTokens; // Track all minted token IDs\r\n\r\n    event Minted(uint256 tokenId);\r\n\r\n    struct History {\r\n        // set History type structure\r\n        address from;\r\n        address to;\r\n        uint256 tokenIds;\r\n    }\r\n\r\n    mapping(uint256 => History[]) public ownershipHistory;\r\n    // Mapping to store price of each NFT\r\n    mapping(address => uint256[]) public tokenIds;\r\n    mapping(uint256 => uint256) public price;\r\n\r\n    event remover(uint256[] array, string message, uint256 tokenId);\r\n\r\n    // Constructor to set the token name and symbol\r\n    constructor() ERC721(\"Softwork\", \"S\") Ownable(_msgSender()) {\r\n        // Initialize owner in Ownable\r\n        transferOwnership(msg.sender);\r\n    }\r\n\r\n    function _checkOwner() internal view override {\r\n        require(owner() == _msgSender(), \"Caller is not the owner\");\r\n    }\r\n\r\n    // Mint an NFT\r\n    function mintNft(\r\n        //mint function for nft token mint\r\n        address recipient,\r\n        string memory _tokenURI\r\n    ) public returns (uint256) {\r\n        _tokenId += 1;\r\n        uint256 newTokenId = _tokenId;\r\n        _mint(recipient, newTokenId);\r\n        _setTokenURI(newTokenId, _tokenURI);\r\n        _mintedTokens.push(_tokenId); // Store minted token ID\r\n        tokenIds[recipient].push(_tokenId);\r\n\r\n        emit Minted(newTokenId);\r\n        return newTokenId;\r\n    }\r\n\r\n    // List NFT for sale\r\n    function sellNft(uint256 _tokenid, uint256 _price) public {\r\n        // sell Nft token sell function\r\n        require(\r\n            ownerOf(_tokenid) == _msgSender(),\r\n            \"Caller is not the owner of this NFT\"\r\n        );\r\n        price[_tokenid] = _price;\r\n        \r\n        approve(address(this), _tokenid); // Seller approves the contract to transfer their NFT\r\n    }\r\n\r\n    \r\n    function buyNft(uint256 tokenId) public payable {\r\n        address seller = ownerOf(tokenId);\r\n        uint PriceValue = price[tokenId];\r\n\r\n        uint256[] storage array = tokenIds[seller]; // remove token id from user token ids block start \r\n        uint256 index;\r\n\r\n        for (uint256 i = 0; i < array.length; i++) { // start loop util array length\r\n            if (array[i] == tokenId) {      // check array value equal tokenId \r\n                index = i; // store in index variable\r\n                break; // stop execution when index receive; \r\n            }\r\n        }\r\n\r\n        array[index] = array[array.length - 1];  //array[index ]= id, array.len -1 return array last element index ex: last e is 6, 6-1 =5 index of six\r\n        array.pop();        // remove array's last element             // remove token id block end \r\n\r\n        require(PriceValue > 0, \"Token not listed for sale\");\r\n        require(\r\n            seller != _msgSender(),\r\n            \"You are already the owner of this token\"\r\n        );\r\n        require(msg.value >= PriceValue, \"Insufficient funds to buy NFT\");\r\n\r\n        // Transfer the NFT from seller to buyer\r\n        _transfer(seller, msg.sender, tokenId);// transfer nft \r\n\r\n        // Clear the price after purchase\r\n        price[tokenId] = 0; //set price 0 after bought\r\n\r\n        History memory values = History({// create history , create history compy using memory and then store in state var\r\n            from: seller,\r\n            to: msg.sender,\r\n            tokenIds: tokenId\r\n        });\r\n\r\n        // Push the history entry into the ownershipHistory array for the specific tokenId\r\n\r\n        tokenIds[msg.sender].push(tokenId);\r\n        ownershipHistory[tokenId].push(values);// pass history memory reference  and set srore history\r\n\r\n        // Send funds to the seller\r\n        (bool sent, ) = payable(seller).call{value: PriceValue}(\"\");    // pay to seller\r\n        require(sent, \"Funds transfer to seller failed\");\r\n\r\n        // Refund excess funds to the buyer\r\n        uint refund = msg.value - PriceValue;\r\n        if (refund > 0) {\r\n            (bool refundSent, ) = payable(msg.sender).call{value: refund}(\"\");// refund to buyer\r\n            require(refundSent, \"Refund to buyer failed\");\r\n        }\r\n        emit remover(array, \"this is emitted from remover\", tokenId);\r\n    }\r\n\r\n    function getAllMintedTokens() public view returns (uint256[] memory) { //get all minted tokens from this function\r\n       \r\n        return _mintedTokens; // Return all minted tokens\r\n    }\r\n\r\n    function getAddressTokenIds(\r\n        address account\r\n    ) public view returns (uint256[] memory) {\r\n        // get token ids using address\r\n        return tokenIds[account];\r\n    }\r\n\r\n    function getOwnershipHistory(\r\n        uint256 tokenId\r\n    ) public view returns (History[] memory) {\r\n        // get token Id selling history function\r\n        return ownershipHistory[tokenId];\r\n    }\r\n\r\n    // Transfer NFT (non-sale)\r\n    function transferNFT(address to, uint256 tokenId) public {\r\n        // for transfer nft token ,transfer function\r\n        require(\r\n            ownerOf(tokenId) == _msgSender(),\r\n            \"Caller is not the owner of this NFT\"\r\n        );\r\n        History memory values = History({\r\n            from: msg.sender,\r\n            to: to,\r\n            tokenIds: tokenId\r\n        });\r\n\r\n        // Push the history entry into the ownershipHistory array for the specific tokenId\r\n        ownershipHistory[tokenId].push(values);\r\n\r\n        _transfer(_msgSender(), to, tokenId);\r\n    }\r\n\r\n    // Check if an operator is approved for all\r\n    //------------------------------------------ Un-useable function -----------------------------------------------\r\n    function checkIsAppForAll(\r\n        address _owner,\r\n        address operator\r\n    ) public view returns (bool) {\r\n        return isApprovedForAll(_owner, operator);\r\n    }\r\n\r\n    function isApproval(\r\n        address contAddr,\r\n        address tokenId\r\n    ) public view returns (bool) {\r\n        return isApproval(contAddr, tokenId);\r\n    }\r\n\r\n    // Burn an NFT\r\n    function burnNft(uint256 tokenId) public onlyOwner {\r\n        // burn function for destory nft\r\n        _burn(tokenId);\r\n    }\r\n}\r\n",
  "sourcePath": "D:\\Blockchain\\Truffle\\Marketplace\\truffle\\contracts\\NFTItemERC721.sol",
  "compiler": {
    "name": "solc",
    "version": "0.8.20+commit.a1b79de6.Emscripten.clang"
  },
  "schemaVersion": "3.4.16",
  "updatedAt": "2025-01-06T08:06:36.281Z",
  "networkType": "ethereum",
  "devdoc": {
    "errors": {
      "ERC721IncorrectOwner(address,uint256,address)": [
        {
          "details": "Indicates an error related to the ownership over a particular token. Used in transfers.",
          "params": {
            "owner": "Address of the current owner of a token.",
            "sender": "Address whose tokens are being transferred.",
            "tokenId": "Identifier number of a token."
          }
        }
      ],
      "ERC721InsufficientApproval(address,uint256)": [
        {
          "details": "Indicates a failure with the `operator`s approval. Used in transfers.",
          "params": {
            "operator": "Address that may be allowed to operate on tokens without being their owner.",
            "tokenId": "Identifier number of a token."
          }
        }
      ],
      "ERC721InvalidApprover(address)": [
        {
          "details": "Indicates a failure with the `approver` of a token to be approved. Used in approvals.",
          "params": {
            "approver": "Address initiating an approval operation."
          }
        }
      ],
      "ERC721InvalidOperator(address)": [
        {
          "details": "Indicates a failure with the `operator` to be approved. Used in approvals.",
          "params": {
            "operator": "Address that may be allowed to operate on tokens without being their owner."
          }
        }
      ],
      "ERC721InvalidOwner(address)": [
        {
          "details": "Indicates that an address can't be an owner. For example, `address(0)` is a forbidden owner in ERC-20. Used in balance queries.",
          "params": {
            "owner": "Address of the current owner of a token."
          }
        }
      ],
      "ERC721InvalidReceiver(address)": [
        {
          "details": "Indicates a failure with the token `receiver`. Used in transfers.",
          "params": {
            "receiver": "Address to which tokens are being transferred."
          }
        }
      ],
      "ERC721InvalidSender(address)": [
        {
          "details": "Indicates a failure with the token `sender`. Used in transfers.",
          "params": {
            "sender": "Address whose tokens are being transferred."
          }
        }
      ],
      "ERC721NonexistentToken(uint256)": [
        {
          "details": "Indicates a `tokenId` whose `owner` is the zero address.",
          "params": {
            "tokenId": "Identifier number of a token."
          }
        }
      ],
      "OwnableInvalidOwner(address)": [
        {
          "details": "The owner is not a valid owner account. (eg. `address(0)`)"
        }
      ],
      "OwnableUnauthorizedAccount(address)": [
        {
          "details": "The caller account is not authorized to perform an operation."
        }
      ]
    },
    "events": {
      "Approval(address,address,uint256)": {
        "details": "Emitted when `owner` enables `approved` to manage the `tokenId` token."
      },
      "ApprovalForAll(address,address,bool)": {
        "details": "Emitted when `owner` enables or disables (`approved`) `operator` to manage all of its assets."
      },
      "BatchMetadataUpdate(uint256,uint256)": {
        "details": "This event emits when the metadata of a range of tokens is changed. So that the third-party platforms such as NFT market could timely update the images and related attributes of the NFTs."
      },
      "MetadataUpdate(uint256)": {
        "details": "This event emits when the metadata of a token is changed. So that the third-party platforms such as NFT market could timely update the images and related attributes of the NFT."
      },
      "Transfer(address,address,uint256)": {
        "details": "Emitted when `tokenId` token is transferred from `from` to `to`."
      }
    },
    "kind": "dev",
    "methods": {
      "approve(address,uint256)": {
        "details": "See {IERC721-approve}."
      },
      "balanceOf(address)": {
        "details": "See {IERC721-balanceOf}."
      },
      "getApproved(uint256)": {
        "details": "See {IERC721-getApproved}."
      },
      "isApprovedForAll(address,address)": {
        "details": "See {IERC721-isApprovedForAll}."
      },
      "name()": {
        "details": "See {IERC721Metadata-name}."
      },
      "owner()": {
        "details": "Returns the address of the current owner."
      },
      "ownerOf(uint256)": {
        "details": "See {IERC721-ownerOf}."
      },
      "renounceOwnership()": {
        "details": "Leaves the contract without owner. It will not be possible to call `onlyOwner` functions. Can only be called by the current owner. NOTE: Renouncing ownership will leave the contract without an owner, thereby disabling any functionality that is only available to the owner."
      },
      "safeTransferFrom(address,address,uint256)": {
        "details": "See {IERC721-safeTransferFrom}."
      },
      "safeTransferFrom(address,address,uint256,bytes)": {
        "details": "See {IERC721-safeTransferFrom}."
      },
      "setApprovalForAll(address,bool)": {
        "details": "See {IERC721-setApprovalForAll}."
      },
      "supportsInterface(bytes4)": {
        "details": "See {IERC165-supportsInterface}"
      },
      "symbol()": {
        "details": "See {IERC721Metadata-symbol}."
      },
      "tokenURI(uint256)": {
        "details": "See {IERC721Metadata-tokenURI}."
      },
      "transferFrom(address,address,uint256)": {
        "details": "See {IERC721-transferFrom}."
      },
      "transferOwnership(address)": {
        "details": "Transfers ownership of the contract to a new account (`newOwner`). Can only be called by the current owner."
      }
    },
    "version": 1
  },
  "userdoc": {
    "kind": "user",
    "methods": {},
    "version": 1
  }
}